{
  "contractName": "HBTLock",
  "abi": [
    {
      "inputs": [
        {
          "internalType": "contract IERC20",
          "name": "_hbt",
          "type": "address"
        }
      ],
      "stateMutability": "nonpayable",
      "type": "constructor"
    },
    {
      "anonymous": false,
      "inputs": [
        {
          "indexed": true,
          "internalType": "address",
          "name": "previousOwner",
          "type": "address"
        },
        {
          "indexed": true,
          "internalType": "address",
          "name": "newOwner",
          "type": "address"
        }
      ],
      "name": "OwnershipTransferred",
      "type": "event"
    },
    {
      "inputs": [],
      "name": "blockTime",
      "outputs": [
        {
          "internalType": "uint256",
          "name": "",
          "type": "uint256"
        }
      ],
      "stateMutability": "view",
      "type": "function"
    },
    {
      "inputs": [
        {
          "internalType": "address",
          "name": "",
          "type": "address"
        },
        {
          "internalType": "uint256",
          "name": "",
          "type": "uint256"
        }
      ],
      "name": "depositInfo",
      "outputs": [
        {
          "internalType": "uint256",
          "name": "endBlock",
          "type": "uint256"
        },
        {
          "internalType": "uint256",
          "name": "number",
          "type": "uint256"
        },
        {
          "internalType": "uint256",
          "name": "times",
          "type": "uint256"
        }
      ],
      "stateMutability": "view",
      "type": "function"
    },
    {
      "inputs": [],
      "name": "depositTotal",
      "outputs": [
        {
          "internalType": "uint256",
          "name": "",
          "type": "uint256"
        }
      ],
      "stateMutability": "view",
      "type": "function"
    },
    {
      "inputs": [],
      "name": "hbtSafe",
      "outputs": [
        {
          "internalType": "contract IERC20",
          "name": "",
          "type": "address"
        }
      ],
      "stateMutability": "view",
      "type": "function"
    },
    {
      "inputs": [],
      "name": "masterChef",
      "outputs": [
        {
          "internalType": "address",
          "name": "",
          "type": "address"
        }
      ],
      "stateMutability": "view",
      "type": "function"
    },
    {
      "inputs": [],
      "name": "owner",
      "outputs": [
        {
          "internalType": "address",
          "name": "",
          "type": "address"
        }
      ],
      "stateMutability": "view",
      "type": "function"
    },
    {
      "inputs": [],
      "name": "pickDepositTotal",
      "outputs": [
        {
          "internalType": "uint256",
          "name": "",
          "type": "uint256"
        }
      ],
      "stateMutability": "view",
      "type": "function"
    },
    {
      "inputs": [],
      "name": "pickTimesAwardTotal",
      "outputs": [
        {
          "internalType": "uint256",
          "name": "",
          "type": "uint256"
        }
      ],
      "stateMutability": "view",
      "type": "function"
    },
    {
      "inputs": [],
      "name": "renounceOwnership",
      "outputs": [],
      "stateMutability": "nonpayable",
      "type": "function"
    },
    {
      "inputs": [],
      "name": "timesAwardTotal",
      "outputs": [
        {
          "internalType": "uint256",
          "name": "",
          "type": "uint256"
        }
      ],
      "stateMutability": "view",
      "type": "function"
    },
    {
      "inputs": [
        {
          "internalType": "address",
          "name": "newOwner",
          "type": "address"
        }
      ],
      "name": "transferOwnership",
      "outputs": [],
      "stateMutability": "nonpayable",
      "type": "function"
    },
    {
      "inputs": [
        {
          "internalType": "address",
          "name": "",
          "type": "address"
        }
      ],
      "name": "userInfo",
      "outputs": [
        {
          "internalType": "uint256",
          "name": "timesAward",
          "type": "uint256"
        },
        {
          "internalType": "uint256",
          "name": "deposit",
          "type": "uint256"
        },
        {
          "internalType": "uint256",
          "name": "pickDeposit",
          "type": "uint256"
        },
        {
          "internalType": "uint256",
          "name": "pickTimesAward",
          "type": "uint256"
        }
      ],
      "stateMutability": "view",
      "type": "function"
    },
    {
      "inputs": [
        {
          "internalType": "address",
          "name": "_address",
          "type": "address"
        }
      ],
      "name": "setMasterChef",
      "outputs": [
        {
          "internalType": "bool",
          "name": "",
          "type": "bool"
        }
      ],
      "stateMutability": "nonpayable",
      "type": "function"
    },
    {
      "inputs": [
        {
          "internalType": "address",
          "name": "_address",
          "type": "address"
        },
        {
          "internalType": "uint256",
          "name": "_number",
          "type": "uint256"
        },
        {
          "internalType": "uint256",
          "name": "_times",
          "type": "uint256"
        }
      ],
      "name": "disposit",
      "outputs": [
        {
          "internalType": "bool",
          "name": "",
          "type": "bool"
        }
      ],
      "stateMutability": "nonpayable",
      "type": "function"
    },
    {
      "inputs": [
        {
          "internalType": "address",
          "name": "_address",
          "type": "address"
        }
      ],
      "name": "unlockInfo",
      "outputs": [
        {
          "internalType": "uint256",
          "name": "",
          "type": "uint256"
        },
        {
          "internalType": "uint256",
          "name": "",
          "type": "uint256"
        }
      ],
      "stateMutability": "view",
      "type": "function"
    },
    {
      "inputs": [],
      "name": "withdraw",
      "outputs": [],
      "stateMutability": "nonpayable",
      "type": "function"
    }
  ],
  "bytecode": "0x6080604052600f60015534801561001557600080fd5b50604051611cf5380380611cf58339818101604052602081101561003857600080fd5b8101908080519060200190929190505050600061005961018f60201b60201c565b9050806000806101000a81548173ffffffffffffffffffffffffffffffffffffffff021916908373ffffffffffffffffffffffffffffffffffffffff1602179055508073ffffffffffffffffffffffffffffffffffffffff16600073ffffffffffffffffffffffffffffffffffffffff167f8be0079c531659141344cd1fd0a4f28419497f9722a3daafe3b4186f6b6457e060405160405180910390a35080600760006101000a81548173ffffffffffffffffffffffffffffffffffffffff021916908373ffffffffffffffffffffffffffffffffffffffff16021790555061012c600a6000600f815260200190815260200160002081905550610258600a600060148152602001908152602001600020819055506104b0600a6000601981526020019081526020016000208190555050610197565b600033905090565b611b4f806101a66000396000f3fe608060405234801561001057600080fd5b50600436106101005760003560e01c80638da5cb5b11610097578063b9229dbf11610066578063b9229dbf14610353578063b9d774df146103c1578063bac0c51414610431578063f2fde38b1461044f57610100565b80638da5cb5b1461028957806390fe18eb146102bd57806393719ba2146102db578063a2d9f4dc146102f957610100565b806348b15166116100d357806348b151661461020f5780634adae0da1461022d578063575a86b21461024b578063715018a61461027f57610100565b80631959a002146101055780631a63985d1461017257806332b3fcc3146101d15780633ccfd60b14610205575b600080fd5b6101476004803603602081101561011b57600080fd5b81019080803573ffffffffffffffffffffffffffffffffffffffff169060200190929190505050610493565b6040518085815260200184815260200183815260200182815260200194505050505060405180910390f35b6101b46004803603602081101561018857600080fd5b81019080803573ffffffffffffffffffffffffffffffffffffffff1690602001909291905050506104c3565b604051808381526020018281526020019250505060405180910390f35b6101d9610801565b604051808273ffffffffffffffffffffffffffffffffffffffff16815260200191505060405180910390f35b61020d610827565b005b610217610a7b565b6040518082815260200191505060405180910390f35b610235610a81565b6040518082815260200191505060405180910390f35b610253610a87565b604051808273ffffffffffffffffffffffffffffffffffffffff16815260200191505060405180910390f35b610287610aad565b005b610291610c33565b604051808273ffffffffffffffffffffffffffffffffffffffff16815260200191505060405180910390f35b6102c5610c5c565b6040518082815260200191505060405180910390f35b6102e3610c62565b6040518082815260200191505060405180910390f35b61033b6004803603602081101561030f57600080fd5b81019080803573ffffffffffffffffffffffffffffffffffffffff169060200190929190505050610c68565b60405180821515815260200191505060405180910390f35b6103a96004803603606081101561036957600080fd5b81019080803573ffffffffffffffffffffffffffffffffffffffff1690602001909291908035906020019092919080359060200190929190505050610cb0565b60405180821515815260200191505060405180910390f35b61040d600480360360408110156103d757600080fd5b81019080803573ffffffffffffffffffffffffffffffffffffffff1690602001909291908035906020019092919050505061108d565b60405180848152602001838152602001828152602001935050505060405180910390f35b6104396110d1565b6040518082815260200191505060405180910390f35b6104916004803603602081101561046557600080fd5b81019080803573ffffffffffffffffffffffffffffffffffffffff1690602001909291905050506110d7565b005b60096020528060005260406000206000915090508060000154908060010154908060020154908060030154905084565b60008060004390506000600860008673ffffffffffffffffffffffffffffffffffffffff1673ffffffffffffffffffffffffffffffffffffffff16815260200190815260200160002080549050905060008060005b838110156106ef5784600860008a73ffffffffffffffffffffffffffffffffffffffff1673ffffffffffffffffffffffffffffffffffffffff168152602001908152602001600020828154811061056b57fe5b90600052602060002090600302016000015410156106e457610671610662600a610654600860008d73ffffffffffffffffffffffffffffffffffffffff1673ffffffffffffffffffffffffffffffffffffffff16815260200190815260200160002085815481106105d857fe5b906000526020600020906003020160020154600860008e73ffffffffffffffffffffffffffffffffffffffff1673ffffffffffffffffffffffffffffffffffffffff168152602001908152602001600020868154811061063457fe5b9060005260206000209060030201600101546112e290919063ffffffff16565b61136890919063ffffffff16565b846113b290919063ffffffff16565b92506106e1600860008a73ffffffffffffffffffffffffffffffffffffffff1673ffffffffffffffffffffffffffffffffffffffff16815260200190815260200160002082815481106106c057fe5b906000526020600020906003020160010154836113b290919063ffffffff16565b91505b806001019050610518565b50610799600960008973ffffffffffffffffffffffffffffffffffffffff1673ffffffffffffffffffffffffffffffffffffffff1681526020019081526020016000206003015461078b600960008b73ffffffffffffffffffffffffffffffffffffffff1673ffffffffffffffffffffffffffffffffffffffff168152602001908152602001600020600201548561143a90919063ffffffff16565b61143a90919063ffffffff16565b91506107f0600960008973ffffffffffffffffffffffffffffffffffffffff1673ffffffffffffffffffffffffffffffffffffffff168152602001908152602001600020600201548261143a90919063ffffffff16565b905081819550955050505050915091565b600760009054906101000a900473ffffffffffffffffffffffffffffffffffffffff1681565b6000806000339050610838816104c3565b809350819450505060008311610899576040517f08c379a0000000000000000000000000000000000000000000000000000000008152600401808060200182810382526025815260200180611acb6025913960400191505060405180910390fd5b6108e68184600760009054906101000a900473ffffffffffffffffffffffffffffffffffffffff1673ffffffffffffffffffffffffffffffffffffffff166114849092919063ffffffff16565b6108fb826004546113b290919063ffffffff16565b600481905550610928610917838561143a90919063ffffffff16565b6005546113b290919063ffffffff16565b60058190555061098382600960008473ffffffffffffffffffffffffffffffffffffffff1673ffffffffffffffffffffffffffffffffffffffff168152602001908152602001600020600201546113b290919063ffffffff16565b600960008373ffffffffffffffffffffffffffffffffffffffff1673ffffffffffffffffffffffffffffffffffffffff16815260200190815260200160002060020181905550610a306109df838561143a90919063ffffffff16565b600960008473ffffffffffffffffffffffffffffffffffffffff1673ffffffffffffffffffffffffffffffffffffffff168152602001908152602001600020600301546113b290919063ffffffff16565b600960008373ffffffffffffffffffffffffffffffffffffffff1673ffffffffffffffffffffffffffffffffffffffff16815260200190815260200160002060030181905550505050565b60015481565b60035481565b600660009054906101000a900473ffffffffffffffffffffffffffffffffffffffff1681565b610ab5611526565b73ffffffffffffffffffffffffffffffffffffffff1660008054906101000a900473ffffffffffffffffffffffffffffffffffffffff1673ffffffffffffffffffffffffffffffffffffffff1614610b75576040517f08c379a00000000000000000000000000000000000000000000000000000000081526004018080602001828103825260208152602001807f4f776e61626c653a2063616c6c6572206973206e6f7420746865206f776e657281525060200191505060405180910390fd5b600073ffffffffffffffffffffffffffffffffffffffff1660008054906101000a900473ffffffffffffffffffffffffffffffffffffffff1673ffffffffffffffffffffffffffffffffffffffff167f8be0079c531659141344cd1fd0a4f28419497f9722a3daafe3b4186f6b6457e060405160405180910390a360008060006101000a81548173ffffffffffffffffffffffffffffffffffffffff021916908373ffffffffffffffffffffffffffffffffffffffff160217905550565b60008060009054906101000a900473ffffffffffffffffffffffffffffffffffffffff16905090565b60055481565b60025481565b600081600660006101000a81548173ffffffffffffffffffffffffffffffffffffffff021916908373ffffffffffffffffffffffffffffffffffffffff160217905550919050565b6000808311610d0a576040517f08c379a0000000000000000000000000000000000000000000000000000000008152600401808060200182810382526027815260200180611aa46027913960400191505060405180910390fd5b6000600a60008481526020019081526020016000205411610d76576040517f08c379a0000000000000000000000000000000000000000000000000000000008152600401808060200182810382526026815260200180611a336026913960400191505060405180910390fd5b600660009054906101000a900473ffffffffffffffffffffffffffffffffffffffff1673ffffffffffffffffffffffffffffffffffffffff163373ffffffffffffffffffffffffffffffffffffffff1614610e1c576040517f08c379a000000000000000000000000000000000000000000000000000000000815260040180806020018281038252602a815260200180611a59602a913960400191505060405180910390fd5b6000600a6000848152602001908152602001600020549050610e8084610e72610e61600a610e53888a6112e290919063ffffffff16565b61136890919063ffffffff16565b6002546113b290919063ffffffff16565b61143a90919063ffffffff16565b600281905550610e9b846003546113b290919063ffffffff16565b600381905550610f2d610edc85610ece600a610ec0888a6112e290919063ffffffff16565b61136890919063ffffffff16565b61143a90919063ffffffff16565b600960008873ffffffffffffffffffffffffffffffffffffffff1673ffffffffffffffffffffffffffffffffffffffff168152602001908152602001600020600001546113b290919063ffffffff16565b50610f8384600960008873ffffffffffffffffffffffffffffffffffffffff1673ffffffffffffffffffffffffffffffffffffffff168152602001908152602001600020600101546113b290919063ffffffff16565b506000610fdb43610fcd64e8d4a51000610fbf600154610fb164e8d4a51000896112e290919063ffffffff16565b61136890919063ffffffff16565b61136890919063ffffffff16565b6113b290919063ffffffff16565b9050600860008773ffffffffffffffffffffffffffffffffffffffff1673ffffffffffffffffffffffffffffffffffffffff168152602001908152602001600020604051806060016040528083815260200187815260200186815250908060018154018082558091505060019003906000526020600020906003020160009091909190915060008201518160000155602082015181600101556040820151816002015550506001925050509392505050565b600860205281600052604060002081815481106110a657fe5b9060005260206000209060030201600091509150508060000154908060010154908060020154905083565b60045481565b6110df611526565b73ffffffffffffffffffffffffffffffffffffffff1660008054906101000a900473ffffffffffffffffffffffffffffffffffffffff1673ffffffffffffffffffffffffffffffffffffffff161461119f576040517f08c379a00000000000000000000000000000000000000000000000000000000081526004018080602001828103825260208152602001807f4f776e61626c653a2063616c6c6572206973206e6f7420746865206f776e657281525060200191505060405180910390fd5b600073ffffffffffffffffffffffffffffffffffffffff168173ffffffffffffffffffffffffffffffffffffffff161415611225576040517f08c379a0000000000000000000000000000000000000000000000000000000008152600401808060200182810382526026815260200180611a0d6026913960400191505060405180910390fd5b8073ffffffffffffffffffffffffffffffffffffffff1660008054906101000a900473ffffffffffffffffffffffffffffffffffffffff1673ffffffffffffffffffffffffffffffffffffffff167f8be0079c531659141344cd1fd0a4f28419497f9722a3daafe3b4186f6b6457e060405160405180910390a3806000806101000a81548173ffffffffffffffffffffffffffffffffffffffff021916908373ffffffffffffffffffffffffffffffffffffffff16021790555050565b6000808314156112f55760009050611362565b600082840290508284828161130657fe5b041461135d576040517f08c379a0000000000000000000000000000000000000000000000000000000008152600401808060200182810382526021815260200180611a836021913960400191505060405180910390fd5b809150505b92915050565b60006113aa83836040518060400160405280601a81526020017f536166654d6174683a206469766973696f6e206279207a65726f00000000000081525061152e565b905092915050565b600080828401905083811015611430576040517f08c379a000000000000000000000000000000000000000000000000000000000815260040180806020018281038252601b8152602001807f536166654d6174683a206164646974696f6e206f766572666c6f77000000000081525060200191505060405180910390fd5b8091505092915050565b600061147c83836040518060400160405280601e81526020017f536166654d6174683a207375627472616374696f6e206f766572666c6f7700008152506115f4565b905092915050565b6115218363a9059cbb60e01b8484604051602401808373ffffffffffffffffffffffffffffffffffffffff16815260200182815260200192505050604051602081830303815290604052907bffffffffffffffffffffffffffffffffffffffffffffffffffffffff19166020820180517bffffffffffffffffffffffffffffffffffffffffffffffffffffffff83818316178352505050506116b4565b505050565b600033905090565b600080831182906115da576040517f08c379a00000000000000000000000000000000000000000000000000000000081526004018080602001828103825283818151815260200191508051906020019080838360005b8381101561159f578082015181840152602081019050611584565b50505050905090810190601f1680156115cc5780820380516001836020036101000a031916815260200191505b509250505060405180910390fd5b5060008385816115e657fe5b049050809150509392505050565b60008383111582906116a1576040517f08c379a00000000000000000000000000000000000000000000000000000000081526004018080602001828103825283818151815260200191508051906020019080838360005b8381101561166657808201518184015260208101905061164b565b50505050905090810190601f1680156116935780820380516001836020036101000a031916815260200191505b509250505060405180910390fd5b5060008385039050809150509392505050565b6060611716826040518060400160405280602081526020017f5361666545524332303a206c6f772d6c6576656c2063616c6c206661696c65648152508573ffffffffffffffffffffffffffffffffffffffff166117a39092919063ffffffff16565b905060008151111561179e5780806020019051602081101561173757600080fd5b810190808051906020019092919050505061179d576040517f08c379a000000000000000000000000000000000000000000000000000000000815260040180806020018281038252602a815260200180611af0602a913960400191505060405180910390fd5b5b505050565b60606117b284846000856117bb565b90509392505050565b60606117c6856119c1565b611838576040517f08c379a000000000000000000000000000000000000000000000000000000000815260040180806020018281038252601d8152602001807f416464726573733a2063616c6c20746f206e6f6e2d636f6e747261637400000081525060200191505060405180910390fd5b600060608673ffffffffffffffffffffffffffffffffffffffff1685876040518082805190602001908083835b602083106118885780518252602082019150602081019050602083039250611865565b6001836020036101000a03801982511681845116808217855250505050505090500191505060006040518083038185875af1925050503d80600081146118ea576040519150601f19603f3d011682016040523d82523d6000602084013e6118ef565b606091505b509150915081156119045780925050506119b9565b6000815111156119175780518082602001fd5b836040517f08c379a00000000000000000000000000000000000000000000000000000000081526004018080602001828103825283818151815260200191508051906020019080838360005b8381101561197e578082015181840152602081019050611963565b50505050905090810190601f1680156119ab5780820380516001836020036101000a031916815260200191505b509250505060405180910390fd5b949350505050565b60008060007fc5d2460186f7233c927e7db2dcc703c0e500b653ca82273b7bfad8045d85a47060001b9050833f9150808214158015611a0357506000801b8214155b9250505091905056fe4f776e61626c653a206e6577206f776e657220697320746865207a65726f20616464726573734842544c6f636b3a646973706f736974205f74696d6573204c657373207468616e207a65726f4842544c6f636b3a6d73672e73656e646572204e6f7420657175616c20746f206d617374657243686566536166654d6174683a206d756c7469706c69636174696f6e206f766572666c6f774842544c6f636b3a646973706f736974205f6e756d626572204c657373207468616e207a65726f4842544c6f636b3a20756e6c6f636b206e756d626572204c657373207468616e207a65726f5361666545524332303a204552433230206f7065726174696f6e20646964206e6f742073756363656564a26469706673582212205a93be0ef06148e8e4833e5af00a1973491c2fa0438bd7998e23fa288297bd4864736f6c634300060c0033",
  "immutableReferences": {},
  "source": "pragma solidity 0.6.12;\nimport \"@openzeppelin/contracts/token/ERC20/IERC20.sol\";\nimport \"@openzeppelin/contracts/token/ERC20/SafeERC20.sol\";\n// import \"@openzeppelin/contracts/utils/EnumerableSet.sol\";\nimport \"@openzeppelin/contracts/math/SafeMath.sol\";\nimport \"@openzeppelin/contracts/access/Ownable.sol\";\n\n\ncontract HBTLock is Ownable {\n    using SafeMath for uint256;\n    using SafeERC20 for IERC20;\n\n    uint256 public blockTime = 15;       //\n    uint256 public timesAwardTotal;      //\n    uint256 public depositTotal;         //\n    uint256 public pickDepositTotal;     //\n    uint256 public pickTimesAwardTotal;  //\n\n    address public masterChef;\n    IERC20 public hbtSafe;\n\n    //struct\n    struct DepositInfo {\n        uint256 endBlock;    //\n        uint256 number;      //\n        uint256 times;       //\n    }\n    mapping (address => DepositInfo[]) public depositInfo;    //\n\n    //\n    struct UserInfo {\n        uint256 timesAward;         //\n        uint256 deposit;            //\n        uint256 pickDeposit;        //\n        uint256 pickTimesAward;     //\n    }\n    mapping (address => UserInfo) public userInfo;    //\n\n    //times\n    mapping (uint256 => uint256) times;\n\n    constructor(\n        IERC20 _hbt          //HBT Token\n    ) public {\n        hbtSafe = _hbt;\n\n        times[15] = 300;\n        times[20] = 600;\n        times[25] = 1200;\n    }\n\n    //masterChef\n    function setMasterChef(address _address) public returns (bool) {\n        masterChef = _address;\n    }\n\n    //\n    function disposit(address _address, uint256 _number, uint256 _times) public returns (bool) {\n        require(_number > 0, \"HBTLock:disposit _number Less than zero\");\n        require(times[_times] > 0, \"HBTLock:disposit _times Less than zero\");\n        require(msg.sender == masterChef, \"HBTLock:msg.sender Not equal to masterChef\");\n\n        uint256 _endBlockTime = times[_times];\n        timesAwardTotal = timesAwardTotal.add(_number.mul(_times).div(10)).sub(_number);\n        depositTotal = depositTotal.add(_number);\n\n        userInfo[_address].timesAward.add(_number.mul(_times).div(10).sub(_number));\n        userInfo[_address].deposit.add(_number);\n\n        uint256 _endBlock = _endBlockTime.mul(1e12).div(blockTime).div(1e12).add(block.number); //\n        depositInfo[_address].push(DepositInfo({\n            endBlock: _endBlock,\n            number: _number,\n            times: _times\n        }));\n\n        return true;\n    }\n\n    //\n    function unlockInfo(address _address) public view returns (uint256, uint256) {\n        uint256 _blcokNumber = block.number;\n        uint256 length = depositInfo[_address].length;\n\n        uint256 unlockNumber;\n        uint256 unlockDispositNumber;\n        for (uint256 id = 0; id < length; ++id) {\n            if(depositInfo[_address][id].endBlock < _blcokNumber) {\n                unlockNumber = unlockNumber.add(depositInfo[_address][id].number.mul(depositInfo[_address][id].times).div(10));\n                unlockDispositNumber = unlockDispositNumber.add(depositInfo[_address][id].number);\n            }\n        }\n        unlockNumber =  unlockNumber.sub(userInfo[_address].pickDeposit).sub(userInfo[_address].pickTimesAward);\n        unlockDispositNumber = unlockDispositNumber.sub(userInfo[_address].pickDeposit);\n\n        return (unlockNumber,unlockDispositNumber);\n    }\n    \n    //\n    function  withdraw() public {\n\n        uint256 unlockNumber;\n        uint256 unlockDispositNumber;\n        address _address = address(msg.sender);\n\n        ( unlockNumber, unlockDispositNumber) = unlockInfo(_address);\n        require(unlockNumber > 0 , \"HBTLock: unlock number Less than zero\");\n\n\n        hbtSafe.safeTransfer(_address,unlockNumber);\n        // hbtSafe.safeTransferFrom(address(this),_address,unlockNumber);\n\n        pickDepositTotal = pickDepositTotal.add(unlockDispositNumber);\n        pickTimesAwardTotal = pickTimesAwardTotal.add(unlockNumber.sub(unlockDispositNumber));\n\n        userInfo[_address].pickDeposit = userInfo[_address].pickDeposit.add(unlockDispositNumber);\n        userInfo[_address].pickTimesAward = userInfo[_address].pickTimesAward.add(unlockNumber.sub(unlockDispositNumber));\n    }\n}\n",
  "sourcePath": "/Users/houyi/dev/hbt-contract/contracts/HBTLock.sol",
  "compiler": {
    "name": "solc",
    "version": "0.6.12+commit.27d51765.Emscripten.clang"
  },
  "schemaVersion": "3.3.1",
  "updatedAt": "2020-10-27T08:10:15.298Z",
  "devdoc": {
    "kind": "dev",
    "methods": {
      "owner()": {
        "details": "Returns the address of the current owner."
      },
      "renounceOwnership()": {
        "details": "Leaves the contract without owner. It will not be possible to call `onlyOwner` functions anymore. Can only be called by the current owner. NOTE: Renouncing ownership will leave the contract without an owner, thereby removing any functionality that is only available to the owner."
      },
      "transferOwnership(address)": {
        "details": "Transfers ownership of the contract to a new account (`newOwner`). Can only be called by the current owner."
      }
    },
    "version": 1
  },
  "userdoc": {
    "kind": "user",
    "methods": {},
    "version": 1
  }
}