{
  "contractName": "Migrator2",
  "abi": [
    {
      "inputs": [
        {
          "internalType": "contract IUniswapV2Router01",
          "name": "_oldRouter",
          "type": "address"
        },
        {
          "internalType": "contract IUniswapV2Router01",
          "name": "_router",
          "type": "address"
        }
      ],
      "stateMutability": "nonpayable",
      "type": "constructor"
    },
    {
      "inputs": [],
      "name": "oldRouter",
      "outputs": [
        {
          "internalType": "contract IUniswapV2Router01",
          "name": "",
          "type": "address"
        }
      ],
      "stateMutability": "view",
      "type": "function"
    },
    {
      "inputs": [],
      "name": "router",
      "outputs": [
        {
          "internalType": "contract IUniswapV2Router01",
          "name": "",
          "type": "address"
        }
      ],
      "stateMutability": "view",
      "type": "function"
    },
    {
      "inputs": [
        {
          "internalType": "contract IERC20",
          "name": "tokenA",
          "type": "address"
        },
        {
          "internalType": "contract IERC20",
          "name": "tokenB",
          "type": "address"
        },
        {
          "internalType": "uint256",
          "name": "liquidity",
          "type": "uint256"
        },
        {
          "internalType": "uint256",
          "name": "amountAMin",
          "type": "uint256"
        },
        {
          "internalType": "uint256",
          "name": "amountBMin",
          "type": "uint256"
        },
        {
          "internalType": "uint256",
          "name": "deadline",
          "type": "uint256"
        }
      ],
      "name": "migrate",
      "outputs": [],
      "stateMutability": "nonpayable",
      "type": "function"
    }
  ],
  "bytecode": "0x608060405234801561001057600080fd5b506040516110983803806110988339818101604052604081101561003357600080fd5b810190808051906020019092919080519060200190929190505050816000806101000a81548173ffffffffffffffffffffffffffffffffffffffff021916908373ffffffffffffffffffffffffffffffffffffffff16021790555080600160006101000a81548173ffffffffffffffffffffffffffffffffffffffff021916908373ffffffffffffffffffffffffffffffffffffffff1602179055505050610fb8806100e06000396000f3fe608060405234801561001057600080fd5b50600436106100415760003560e01c8063964c1f9814610046578063aac55b391461007a578063f887ea4014610106575b600080fd5b61004e61013a565b604051808273ffffffffffffffffffffffffffffffffffffffff16815260200191505060405180910390f35b610104600480360360c081101561009057600080fd5b81019080803573ffffffffffffffffffffffffffffffffffffffff169060200190929190803573ffffffffffffffffffffffffffffffffffffffff1690602001909291908035906020019092919080359060200190929190803590602001909291908035906020019092919050505061015e565b005b61010e6107c2565b604051808273ffffffffffffffffffffffffffffffffffffffff16815260200191505060405180910390f35b60008054906101000a900473ffffffffffffffffffffffffffffffffffffffff1681565b600061020b60008054906101000a900473ffffffffffffffffffffffffffffffffffffffff1673ffffffffffffffffffffffffffffffffffffffff1663c45a01556040518163ffffffff1660e01b815260040160206040518083038186803b1580156101c957600080fd5b505afa1580156101dd573d6000803e3d6000fd5b505050506040513d60208110156101f357600080fd5b810190808051906020019092919050505088886107e8565b905061023a3330878473ffffffffffffffffffffffffffffffffffffffff16610901909392919063ffffffff16565b8073ffffffffffffffffffffffffffffffffffffffff1663095ea7b360008054906101000a900473ffffffffffffffffffffffffffffffffffffffff16876040518363ffffffff1660e01b8152600401808373ffffffffffffffffffffffffffffffffffffffff16815260200182815260200192505050602060405180830381600087803b1580156102cb57600080fd5b505af11580156102df573d6000803e3d6000fd5b505050506040513d60208110156102f557600080fd5b81019080805190602001909291905050505060008060008054906101000a900473ffffffffffffffffffffffffffffffffffffffff1673ffffffffffffffffffffffffffffffffffffffff1663baa2abde8a8a8a8a8a308b6040518863ffffffff1660e01b8152600401808873ffffffffffffffffffffffffffffffffffffffff1681526020018773ffffffffffffffffffffffffffffffffffffffff1681526020018681526020018581526020018481526020018373ffffffffffffffffffffffffffffffffffffffff1681526020018281526020019750505050505050506040805180830381600087803b1580156103ee57600080fd5b505af1158015610402573d6000803e3d6000fd5b505050506040513d604081101561041857600080fd5b810190808051906020019092919080519060200190929190505050915091508873ffffffffffffffffffffffffffffffffffffffff1663095ea7b3600160009054906101000a900473ffffffffffffffffffffffffffffffffffffffff167fffffffffffffffffffffffffffffffffffffffffffffffffffffffffffffffff6040518363ffffffff1660e01b8152600401808373ffffffffffffffffffffffffffffffffffffffff16815260200182815260200192505050602060405180830381600087803b1580156104ea57600080fd5b505af11580156104fe573d6000803e3d6000fd5b505050506040513d602081101561051457600080fd5b8101908080519060200190929190505050508773ffffffffffffffffffffffffffffffffffffffff1663095ea7b3600160009054906101000a900473ffffffffffffffffffffffffffffffffffffffff167fffffffffffffffffffffffffffffffffffffffffffffffffffffffffffffffff6040518363ffffffff1660e01b8152600401808373ffffffffffffffffffffffffffffffffffffffff16815260200182815260200192505050602060405180830381600087803b1580156105d957600080fd5b505af11580156105ed573d6000803e3d6000fd5b505050506040513d602081101561060357600080fd5b810190808051906020019092919050505050600080600160009054906101000a900473ffffffffffffffffffffffffffffffffffffffff1673ffffffffffffffffffffffffffffffffffffffff1663e8e337008c8c87878d8d338e6040518963ffffffff1660e01b8152600401808973ffffffffffffffffffffffffffffffffffffffff1681526020018873ffffffffffffffffffffffffffffffffffffffff1681526020018781526020018681526020018581526020018481526020018373ffffffffffffffffffffffffffffffffffffffff16815260200182815260200198505050505050505050606060405180830381600087803b15801561070757600080fd5b505af115801561071b573d6000803e3d6000fd5b505050506040513d606081101561073157600080fd5b810190808051906020019092919080519060200190929190805190602001909291905050505091509150610788338386038d73ffffffffffffffffffffffffffffffffffffffff166109c29092919063ffffffff16565b6107b5338285038c73ffffffffffffffffffffffffffffffffffffffff166109c29092919063ffffffff16565b5050505050505050505050565b600160009054906101000a900473ffffffffffffffffffffffffffffffffffffffff1681565b60008060006107f78585610a64565b91509150858282604051602001808373ffffffffffffffffffffffffffffffffffffffff1660601b81526014018273ffffffffffffffffffffffffffffffffffffffff1660601b8152601401925050506040516020818303038152906040528051906020012060405160200180807fff000000000000000000000000000000000000000000000000000000000000008152506001018373ffffffffffffffffffffffffffffffffffffffff1660601b8152601401828152602001807f96e8ac4277198ff8b6f785478aa9a39f403cb768dd02cbee326c3e7da348845f815250602001925050506040516020818303038152906040528051906020012060001c925050509392505050565b6109bc846323b872dd60e01b858585604051602401808473ffffffffffffffffffffffffffffffffffffffff1681526020018373ffffffffffffffffffffffffffffffffffffffff1681526020018281526020019350505050604051602081830303815290604052907bffffffffffffffffffffffffffffffffffffffffffffffffffffffff19166020820180517bffffffffffffffffffffffffffffffffffffffffffffffffffffffff8381831617835250505050610bdb565b50505050565b610a5f8363a9059cbb60e01b8484604051602401808373ffffffffffffffffffffffffffffffffffffffff16815260200182815260200192505050604051602081830303815290604052907bffffffffffffffffffffffffffffffffffffffffffffffffffffffff19166020820180517bffffffffffffffffffffffffffffffffffffffffffffffffffffffff8381831617835250505050610bdb565b505050565b6000808273ffffffffffffffffffffffffffffffffffffffff168473ffffffffffffffffffffffffffffffffffffffff161415610aec576040517f08c379a0000000000000000000000000000000000000000000000000000000008152600401808060200182810382526025815260200180610f346025913960400191505060405180910390fd5b8273ffffffffffffffffffffffffffffffffffffffff168473ffffffffffffffffffffffffffffffffffffffff1610610b26578284610b29565b83835b8092508193505050600073ffffffffffffffffffffffffffffffffffffffff168273ffffffffffffffffffffffffffffffffffffffff161415610bd4576040517f08c379a000000000000000000000000000000000000000000000000000000000815260040180806020018281038252601e8152602001807f556e697377617056324c6962726172793a205a45524f5f41444452455353000081525060200191505060405180910390fd5b9250929050565b6060610c3d826040518060400160405280602081526020017f5361666545524332303a206c6f772d6c6576656c2063616c6c206661696c65648152508573ffffffffffffffffffffffffffffffffffffffff16610cca9092919063ffffffff16565b9050600081511115610cc557808060200190516020811015610c5e57600080fd5b8101908080519060200190929190505050610cc4576040517f08c379a000000000000000000000000000000000000000000000000000000000815260040180806020018281038252602a815260200180610f59602a913960400191505060405180910390fd5b5b505050565b6060610cd98484600085610ce2565b90509392505050565b6060610ced85610ee8565b610d5f576040517f08c379a000000000000000000000000000000000000000000000000000000000815260040180806020018281038252601d8152602001807f416464726573733a2063616c6c20746f206e6f6e2d636f6e747261637400000081525060200191505060405180910390fd5b600060608673ffffffffffffffffffffffffffffffffffffffff1685876040518082805190602001908083835b60208310610daf5780518252602082019150602081019050602083039250610d8c565b6001836020036101000a03801982511681845116808217855250505050505090500191505060006040518083038185875af1925050503d8060008114610e11576040519150601f19603f3d011682016040523d82523d6000602084013e610e16565b606091505b50915091508115610e2b578092505050610ee0565b600081511115610e3e5780518082602001fd5b836040517f08c379a00000000000000000000000000000000000000000000000000000000081526004018080602001828103825283818151815260200191508051906020019080838360005b83811015610ea5578082015181840152602081019050610e8a565b50505050905090810190601f168015610ed25780820380516001836020036101000a031916815260200191505b509250505060405180910390fd5b949350505050565b60008060007fc5d2460186f7233c927e7db2dcc703c0e500b653ca82273b7bfad8045d85a47060001b9050833f9150808214158015610f2a57506000801b8214155b9250505091905056fe556e697377617056324c6962726172793a204944454e544943414c5f4144445245535345535361666545524332303a204552433230206f7065726174696f6e20646964206e6f742073756363656564a264697066735822122091ed6c7d9ff01b6d942cde3ddedc8850029786ecbfa25c75f3a0510959ae045564736f6c634300060c0033",
  "immutableReferences": {},
  "source": "pragma solidity 0.6.12;\n\nimport \"@openzeppelin/contracts/token/ERC20/IERC20.sol\";\nimport \"@openzeppelin/contracts/token/ERC20/SafeERC20.sol\";\nimport \"./uniswapv2/interfaces/IUniswapV2Pair.sol\";\nimport \"./uniswapv2/interfaces/IUniswapV2Router01.sol\";\n\ncontract Migrator2 {\n    using SafeERC20 for IERC20;\n\n    IUniswapV2Router01 public oldRouter;\n    IUniswapV2Router01 public router;\n\n    constructor(IUniswapV2Router01 _oldRouter, IUniswapV2Router01 _router) public {\n        oldRouter = _oldRouter;\n        router = _router;\n    }\n\n    // msg.sender should have approved 'liquidity' amount of LP token of 'tokenA' and 'tokenB'\n    function migrate(\n        IERC20 tokenA,\n        IERC20 tokenB,\n        uint liquidity,\n        uint amountAMin,\n        uint amountBMin,\n        uint deadline\n    ) external {\n        // Remove existing liquidity from 'oldRouter'\n        address pair = pairFor(oldRouter.factory(), address(tokenA), address(tokenB));\n        IERC20(pair).safeTransferFrom(msg.sender, address(this), liquidity);\n        IERC20(pair).approve(address(oldRouter), liquidity);\n        (uint256 amountA, uint256 amountB) = oldRouter.removeLiquidity(\n            address(tokenA),\n            address(tokenB),\n            liquidity,\n            amountAMin,\n            amountBMin,\n            address(this),\n            deadline\n        );\n\n        // Approve max is ok because it's only to this contract and this contract has no other functionality\n        // Also some ERC20 tokens will fail when approving a set amount twice, such as USDT. Must approve 0 first. This circumvests that issue.\n        tokenA.approve(address(router), uint256(-1));\n        tokenB.approve(address(router), uint256(-1));\n\n        // Add liquidity to 'router'\n        (uint256 pooledAmountA, uint256 pooledAmountB,) = router.addLiquidity(\n            address(tokenA),\n            address(tokenB),\n            amountA,\n            amountB,\n            amountAMin,\n            amountBMin,\n            address(msg.sender),\n            deadline\n        );\n\n        // Send remaining token balances to msg.sender\n        // No safeMath used because pooledAmount must be <= amount\n        tokenA.safeTransfer(msg.sender, amountA - pooledAmountA);\n        tokenB.safeTransfer(msg.sender, amountB - pooledAmountB);\n    }\n\n    // returns sorted token addresses, used to handle return values from pairs sorted in this order\n    function sortTokens(address tokenA, address tokenB) internal pure returns (address token0, address token1) {\n        require(tokenA != tokenB, 'UniswapV2Library: IDENTICAL_ADDRESSES');\n        (token0, token1) = tokenA < tokenB ? (tokenA, tokenB) : (tokenB, tokenA);\n        require(token0 != address(0), 'UniswapV2Library: ZERO_ADDRESS');\n    }\n\n    // calculates the CREATE2 address for a pair without making any external calls\n    function pairFor(address factory, address tokenA, address tokenB) internal pure returns (address pair) {\n        (address token0, address token1) = sortTokens(tokenA, tokenB);\n        pair = address(uint(keccak256(abi.encodePacked(\n                hex'ff',\n                factory,\n                keccak256(abi.encodePacked(token0, token1)),\n                hex'96e8ac4277198ff8b6f785478aa9a39f403cb768dd02cbee326c3e7da348845f' // init code hash\n            ))));\n    }\n}\n",
  "sourcePath": "/Users/houyi/dev/sushiswap/contracts/Migrator2.sol",
  "compiler": {
    "name": "solc",
    "version": "0.6.12+commit.27d51765.Emscripten.clang"
  },
  "schemaVersion": "3.3.1",
  "updatedAt": "2020-10-23T10:26:27.049Z",
  "devdoc": {
    "kind": "dev",
    "methods": {},
    "version": 1
  },
  "userdoc": {
    "kind": "user",
    "methods": {},
    "version": 1
  }
}