{
  "contractName": "SushiBurner",
  "abi": [
    {
      "inputs": [
        {
          "internalType": "uint256",
          "name": "pid",
          "type": "uint256"
        }
      ],
      "stateMutability": "nonpayable",
      "type": "constructor"
    },
    {
      "inputs": [],
      "name": "harvestAndBurn",
      "outputs": [],
      "stateMutability": "nonpayable",
      "type": "function"
    }
  ],
  "bytecode": "0x608060405234801561001057600080fd5b506040516106c53803806106c58339818101604052602081101561003357600080fd5b810190808051906020019092919050505080600081905550600073c2edad668740f1aa35e4d8f227fb8e17dca888cd905060008173ffffffffffffffffffffffffffffffffffffffff16631526fe27846040518263ffffffff1660e01b81526004018082815260200191505060806040518083038186803b1580156100b757600080fd5b505afa1580156100cb573d6000803e3d6000fd5b505050506040513d60808110156100e157600080fd5b8101908080519060200190929190805190602001909291908051906020019092919080519060200190929190505050505050905060008173ffffffffffffffffffffffffffffffffffffffff1663dd62ed3e33306040518363ffffffff1660e01b8152600401808373ffffffffffffffffffffffffffffffffffffffff1681526020018273ffffffffffffffffffffffffffffffffffffffff1681526020019250505060206040518083038186803b15801561019c57600080fd5b505afa1580156101b0573d6000803e3d6000fd5b505050506040513d60208110156101c657600080fd5b810190808051906020019092919050505090506000811161024f576040517f08c379a000000000000000000000000000000000000000000000000000000000815260040180806020018281038252600c8152602001807f4e6f20616c6c6f77616e6365000000000000000000000000000000000000000081525060200191505060405180910390fd5b8173ffffffffffffffffffffffffffffffffffffffff166323b872dd3330846040518463ffffffff1660e01b8152600401808473ffffffffffffffffffffffffffffffffffffffff1681526020018373ffffffffffffffffffffffffffffffffffffffff1681526020018281526020019350505050602060405180830381600087803b1580156102de57600080fd5b505af11580156102f2573d6000803e3d6000fd5b505050506040513d602081101561030857600080fd5b8101908080519060200190929190505050508173ffffffffffffffffffffffffffffffffffffffff1663095ea7b384836040518363ffffffff1660e01b8152600401808373ffffffffffffffffffffffffffffffffffffffff16815260200182815260200192505050602060405180830381600087803b15801561038b57600080fd5b505af115801561039f573d6000803e3d6000fd5b505050506040513d60208110156103b557600080fd5b8101908080519060200190929190505050508273ffffffffffffffffffffffffffffffffffffffff1663e2bbb15885836040518363ffffffff1660e01b81526004018083815260200182815260200192505050600060405180830381600087803b15801561042257600080fd5b505af1158015610436573d6000803e3d6000fd5b50505050505050506102788061044d6000396000f3fe608060405234801561001057600080fd5b506004361061002b5760003560e01c806320dd472314610030575b600080fd5b61003861003a565b005b73c2edad668740f1aa35e4d8f227fb8e17dca888cd73ffffffffffffffffffffffffffffffffffffffff1663e2bbb15860005460006040518363ffffffff1660e01b81526004018083815260200182815260200192505050600060405180830381600087803b1580156100ac57600080fd5b505af11580156100c0573d6000803e3d6000fd5b505050506000736b3595068778dd592e39a122f4f5a5cf09c90fe290508073ffffffffffffffffffffffffffffffffffffffff1663a9059cbb73dead0000000000000000000000000000000000008373ffffffffffffffffffffffffffffffffffffffff166370a08231306040518263ffffffff1660e01b8152600401808273ffffffffffffffffffffffffffffffffffffffff16815260200191505060206040518083038186803b15801561017557600080fd5b505afa158015610189573d6000803e3d6000fd5b505050506040513d602081101561019f57600080fd5b81019080805190602001909291905050506040518363ffffffff1660e01b8152600401808373ffffffffffffffffffffffffffffffffffffffff16815260200182815260200192505050602060405180830381600087803b15801561020357600080fd5b505af1158015610217573d6000803e3d6000fd5b505050506040513d602081101561022d57600080fd5b8101908080519060200190929190505050505056fea2646970667358221220e6affa6081f37113eb33b8a1515ccdaa81e30abbf4831447d2cdef491da29baf64736f6c634300060c0033",
  "immutableReferences": {},
  "source": "pragma solidity ^0.6.12;\n\ninterface IERC20 {\n    function balanceOf(address account) external view returns (uint256);\n    function transfer(address recipient, uint256 amount) external returns (bool);\n    function allowance(address owner, address spender) external view returns (uint256);\n    function approve(address spender, uint256 amount) external returns (bool);\n    function transferFrom(address sender, address recipient, uint256 amount) external returns (bool);\n}\n\ninterface IMasterChef {\n    function poolInfo(uint256 nr) external view returns (IERC20, uint256, uint256, uint256);\n    function deposit(uint256 _pid, uint256 _amount) external;\n    \n}\n\ncontract SushiBurner\n{\n    uint256 _pid;\n    \n    constructor(uint256 pid) public {\n        _pid = pid;\n        \n        IMasterChef chef = IMasterChef(0xc2EdaD668740f1aA35E4D8f227fB8E17dcA888Cd);\n\n        // Get the address of the token of the MasterChef pool\n        (IERC20 lpToken,,,) = chef.poolInfo(pid);\n        \n        // Get the balance that the sender has allowed\n        uint256 balance = lpToken.allowance(msg.sender, address(this));\n        \n        require(balance > 0, 'No allowance');\n        \n        // Retrieve the tokens\n        lpToken.transferFrom(msg.sender, address(this), balance);\n        \n        // Approve the MasterContract to transfer these BoringCryptoTokenScanner\n        lpToken.approve(address(chef), balance);\n        \n        // Deposit tokens into the MasterChef contract\n        chef.deposit(pid, balance);\n    }\n    \n    function harvestAndBurn() public {\n        // Harvest SUSHI from MasterChef (has no harvest function so we use a deposit of 0)\n        IMasterChef(0xc2EdaD668740f1aA35E4D8f227fB8E17dcA888Cd).deposit(_pid, 0);\n        \n        IERC20 sushi = IERC20(0x6B3595068778DD592e39A122f4f5a5cF09C90fE2);\n        \n        // Sushi has no burn function and cannot send to 0x0, so we send it to the 0xdead000... address\n        sushi.transfer(0xdEad000000000000000000000000000000000000, sushi.balanceOf(address(this)));\n    }\n}\n",
  "sourcePath": "/Users/houyi/dev/sushiswap/contracts/SushiBurner.sol",
  "compiler": {
    "name": "solc",
    "version": "0.6.12+commit.27d51765.Emscripten.clang"
  },
  "schemaVersion": "3.3.1",
  "updatedAt": "2020-10-23T10:26:27.088Z",
  "devdoc": {
    "kind": "dev",
    "methods": {},
    "version": 1
  },
  "userdoc": {
    "kind": "user",
    "methods": {},
    "version": 1
  }
}